{
  "contractName": "Mascota",
  "abi": [
    {
      "anonymous": false,
      "inputs": [
        {
          "indexed": false,
          "internalType": "string",
          "name": "nombre",
          "type": "string"
        },
        {
          "indexed": false,
          "internalType": "string",
          "name": "raza",
          "type": "string"
        },
        {
          "indexed": false,
          "internalType": "string",
          "name": "color",
          "type": "string"
        },
        {
          "indexed": false,
          "internalType": "string",
          "name": "comportamiento",
          "type": "string"
        },
        {
          "indexed": false,
          "internalType": "string",
          "name": "owner_name",
          "type": "string"
        },
        {
          "indexed": false,
          "internalType": "string",
          "name": "owner_phone",
          "type": "string"
        }
      ],
      "name": "MascotaAgregada",
      "type": "event"
    },
    {
      "inputs": [
        {
          "internalType": "uint256",
          "name": "",
          "type": "uint256"
        }
      ],
      "name": "mascotas",
      "outputs": [
        {
          "internalType": "string",
          "name": "nombre",
          "type": "string"
        },
        {
          "internalType": "string",
          "name": "raza",
          "type": "string"
        },
        {
          "internalType": "string",
          "name": "color",
          "type": "string"
        },
        {
          "internalType": "string",
          "name": "comportamiento",
          "type": "string"
        },
        {
          "internalType": "string",
          "name": "owner_name",
          "type": "string"
        },
        {
          "internalType": "string",
          "name": "owner_phone",
          "type": "string"
        }
      ],
      "stateMutability": "view",
      "type": "function",
      "constant": true
    },
    {
      "inputs": [
        {
          "internalType": "string",
          "name": "nombre",
          "type": "string"
        },
        {
          "internalType": "string",
          "name": "raza",
          "type": "string"
        },
        {
          "internalType": "string",
          "name": "color",
          "type": "string"
        },
        {
          "internalType": "string",
          "name": "comportamiento",
          "type": "string"
        },
        {
          "internalType": "string",
          "name": "owner_name",
          "type": "string"
        },
        {
          "internalType": "string",
          "name": "owner_phone",
          "type": "string"
        }
      ],
      "name": "addpet",
      "outputs": [],
      "stateMutability": "nonpayable",
      "type": "function"
    },
    {
      "inputs": [
        {
          "internalType": "uint256",
          "name": "index",
          "type": "uint256"
        }
      ],
      "name": "obtenerMascota",
      "outputs": [
        {
          "components": [
            {
              "internalType": "string",
              "name": "nombre",
              "type": "string"
            },
            {
              "internalType": "string",
              "name": "raza",
              "type": "string"
            },
            {
              "internalType": "string",
              "name": "color",
              "type": "string"
            },
            {
              "internalType": "string",
              "name": "comportamiento",
              "type": "string"
            },
            {
              "internalType": "string",
              "name": "owner_name",
              "type": "string"
            },
            {
              "internalType": "string",
              "name": "owner_phone",
              "type": "string"
            }
          ],
          "internalType": "struct Mascota.MascotaInfo",
          "name": "",
          "type": "tuple"
        }
      ],
      "stateMutability": "view",
      "type": "function",
      "constant": true
    }
  ],
  "bytecode": "0x608060405234801561001057600080fd5b506110b1806100206000396000f3fe608060405234801561001057600080fd5b50600436106100415760003560e01c80634283a50d146100465780635489416714610062578063bfc7c11914610092575b600080fd5b610060600480360381019061005b9190610ae7565b6100c7565b005b61007c60048036038101906100779190610c1c565b61021e565b6040516100899190610e35565b60405180910390f35b6100ac60048036038101906100a79190610c1c565b61060d565b6040516100be96959493929190610d8a565b60405180910390f35b60006040518060c0016040528088815260200187815260200186815260200185815260200184815260200183815250905060008190806001815401808255809150506001900390600052602060002090600602016000909190919091506000820151816000019080519060200190610140929190610989565b50602082015181600101908051906020019061015d929190610989565b50604082015181600201908051906020019061017a929190610989565b506060820151816003019080519060200190610197929190610989565b5060808201518160040190805190602001906101b4929190610989565b5060a08201518160050190805190602001906101d1929190610989565b5050507f54afdd7ab7b3687af45bc6c15251695c0406ec6d7ca76d2abd7682b00ea7198187878787878760405161020d96959493929190610d8a565b60405180910390a150505050505050565b610226610a0f565b600080549050821061026d576040517f08c379a000000000000000000000000000000000000000000000000000000000815260040161026490610e15565b60405180910390fd5b6000828154811061028157610280610fb8565b5b90600052602060002090600602016040518060c00160405290816000820180546102aa90610f26565b80601f01602080910402602001604051908101604052809291908181526020018280546102d690610f26565b80156103235780601f106102f857610100808354040283529160200191610323565b820191906000526020600020905b81548152906001019060200180831161030657829003601f168201915b5050505050815260200160018201805461033c90610f26565b80601f016020809104026020016040519081016040528092919081815260200182805461036890610f26565b80156103b55780601f1061038a576101008083540402835291602001916103b5565b820191906000526020600020905b81548152906001019060200180831161039857829003601f168201915b505050505081526020016002820180546103ce90610f26565b80601f01602080910402602001604051908101604052809291908181526020018280546103fa90610f26565b80156104475780601f1061041c57610100808354040283529160200191610447565b820191906000526020600020905b81548152906001019060200180831161042a57829003601f168201915b5050505050815260200160038201805461046090610f26565b80601f016020809104026020016040519081016040528092919081815260200182805461048c90610f26565b80156104d95780601f106104ae576101008083540402835291602001916104d9565b820191906000526020600020905b8154815290600101906020018083116104bc57829003601f168201915b505050505081526020016004820180546104f290610f26565b80601f016020809104026020016040519081016040528092919081815260200182805461051e90610f26565b801561056b5780601f106105405761010080835404028352916020019161056b565b820191906000526020600020905b81548152906001019060200180831161054e57829003601f168201915b5050505050815260200160058201805461058490610f26565b80601f01602080910402602001604051908101604052809291908181526020018280546105b090610f26565b80156105fd5780601f106105d2576101008083540402835291602001916105fd565b820191906000526020600020905b8154815290600101906020018083116105e057829003601f168201915b5050505050815250509050919050565b6000818154811061061d57600080fd5b906000526020600020906006020160009150905080600001805461064090610f26565b80601f016020809104026020016040519081016040528092919081815260200182805461066c90610f26565b80156106b95780601f1061068e576101008083540402835291602001916106b9565b820191906000526020600020905b81548152906001019060200180831161069c57829003601f168201915b5050505050908060010180546106ce90610f26565b80601f01602080910402602001604051908101604052809291908181526020018280546106fa90610f26565b80156107475780601f1061071c57610100808354040283529160200191610747565b820191906000526020600020905b81548152906001019060200180831161072a57829003601f168201915b50505050509080600201805461075c90610f26565b80601f016020809104026020016040519081016040528092919081815260200182805461078890610f26565b80156107d55780601f106107aa576101008083540402835291602001916107d5565b820191906000526020600020905b8154815290600101906020018083116107b857829003601f168201915b5050505050908060030180546107ea90610f26565b80601f016020809104026020016040519081016040528092919081815260200182805461081690610f26565b80156108635780601f1061083857610100808354040283529160200191610863565b820191906000526020600020905b81548152906001019060200180831161084657829003601f168201915b50505050509080600401805461087890610f26565b80601f01602080910402602001604051908101604052809291908181526020018280546108a490610f26565b80156108f15780601f106108c6576101008083540402835291602001916108f1565b820191906000526020600020905b8154815290600101906020018083116108d457829003601f168201915b50505050509080600501805461090690610f26565b80601f016020809104026020016040519081016040528092919081815260200182805461093290610f26565b801561097f5780601f106109545761010080835404028352916020019161097f565b820191906000526020600020905b81548152906001019060200180831161096257829003601f168201915b5050505050905086565b82805461099590610f26565b90600052602060002090601f0160209004810192826109b757600085556109fe565b82601f106109d057805160ff19168380011785556109fe565b828001600101855582156109fe579182015b828111156109fd5782518255916020019190600101906109e2565b5b509050610a0b9190610a45565b5090565b6040518060c001604052806060815260200160608152602001606081526020016060815260200160608152602001606081525090565b5b80821115610a5e576000816000905550600101610a46565b5090565b6000610a75610a7084610e7c565b610e57565b905082815260208101848484011115610a9157610a9061101b565b5b610a9c848285610ee4565b509392505050565b600082601f830112610ab957610ab8611016565b5b8135610ac9848260208601610a62565b91505092915050565b600081359050610ae181611064565b92915050565b60008060008060008060c08789031215610b0457610b03611025565b5b600087013567ffffffffffffffff811115610b2257610b21611020565b5b610b2e89828a01610aa4565b965050602087013567ffffffffffffffff811115610b4f57610b4e611020565b5b610b5b89828a01610aa4565b955050604087013567ffffffffffffffff811115610b7c57610b7b611020565b5b610b8889828a01610aa4565b945050606087013567ffffffffffffffff811115610ba957610ba8611020565b5b610bb589828a01610aa4565b935050608087013567ffffffffffffffff811115610bd657610bd5611020565b5b610be289828a01610aa4565b92505060a087013567ffffffffffffffff811115610c0357610c02611020565b5b610c0f89828a01610aa4565b9150509295509295509295565b600060208284031215610c3257610c31611025565b5b6000610c4084828501610ad2565b91505092915050565b6000610c5482610ead565b610c5e8185610eb8565b9350610c6e818560208601610ef3565b610c778161102a565b840191505092915050565b6000610c8d82610ead565b610c978185610ec9565b9350610ca7818560208601610ef3565b610cb08161102a565b840191505092915050565b6000610cc8601583610ec9565b9150610cd38261103b565b602082019050919050565b600060c0830160008301518482036000860152610cfb8282610c49565b91505060208301518482036020860152610d158282610c49565b91505060408301518482036040860152610d2f8282610c49565b91505060608301518482036060860152610d498282610c49565b91505060808301518482036080860152610d638282610c49565b91505060a083015184820360a0860152610d7d8282610c49565b9150508091505092915050565b600060c0820190508181036000830152610da48189610c82565b90508181036020830152610db88188610c82565b90508181036040830152610dcc8187610c82565b90508181036060830152610de08186610c82565b90508181036080830152610df48185610c82565b905081810360a0830152610e088184610c82565b9050979650505050505050565b60006020820190508181036000830152610e2e81610cbb565b9050919050565b60006020820190508181036000830152610e4f8184610cde565b905092915050565b6000610e61610e72565b9050610e6d8282610f58565b919050565b6000604051905090565b600067ffffffffffffffff821115610e9757610e96610fe7565b5b610ea08261102a565b9050602081019050919050565b600081519050919050565b600082825260208201905092915050565b600082825260208201905092915050565b6000819050919050565b82818337600083830152505050565b60005b83811015610f11578082015181840152602081019050610ef6565b83811115610f20576000848401525b50505050565b60006002820490506001821680610f3e57607f821691505b60208210811415610f5257610f51610f89565b5b50919050565b610f618261102a565b810181811067ffffffffffffffff82111715610f8057610f7f610fe7565b5b80604052505050565b7f4e487b7100000000000000000000000000000000000000000000000000000000600052602260045260246000fd5b7f4e487b7100000000000000000000000000000000000000000000000000000000600052603260045260246000fd5b7f4e487b7100000000000000000000000000000000000000000000000000000000600052604160045260246000fd5b600080fd5b600080fd5b600080fd5b600080fd5b6000601f19601f8301169050919050565b7f496e646963652066756572612064652072616e676f0000000000000000000000600082015250565b61106d81610eda565b811461107857600080fd5b5056fea264697066735822122089dfdab7b98c67e63d0560535bf04084680175ad06d155d94f662d95b2937f1464736f6c63430008060033",
  "immutableReferences": {},
  "source": "// SPDX-License-Identifier: MIT\npragma solidity ^0.8.0;\n\ncontract Mascota {\n\n    struct MascotaInfo {\n        string nombre;\n        string raza;\n        string color;\n        string comportamiento;\n        string owner_name;\n        string owner_phone;\n    }\n\n    MascotaInfo[] public mascotas;\n\n    event MascotaAgregada(\n        string nombre,\n        string raza,\n        string color,\n        string comportamiento,\n        string owner_name,\n        string owner_phone\n    );\n\n    function addpet(\n        string memory nombre,\n        string memory raza,\n        string memory color,\n        string memory comportamiento,\n        string memory owner_name,\n        string memory owner_phone\n    ) public {\n        MascotaInfo memory nuevaMascota = MascotaInfo({\n            nombre: nombre,\n            raza: raza,\n            color: color,\n            comportamiento: comportamiento,\n            owner_name: owner_name,\n            owner_phone: owner_phone\n        });\n\n        mascotas.push(nuevaMascota);\n\n        emit MascotaAgregada(nombre, raza, color, comportamiento, owner_name, owner_phone);\n    }\n\n    function obtenerMascota(uint256 index) public view returns (MascotaInfo memory) {\n        require(index < mascotas.length, \"Indice fuera de rango\");\n        return mascotas[index];\n    }\n}\n",
  "sourcePath": "C:\\Users\\harri\\OneDrive\\Escritorio\\Proyecto_PetChain\\Contrato\\contracts\\Mascota.sol",
  "compiler": {
    "name": "solc",
    "version": "0.8.6+commit.11564f7e.Emscripten.clang"
  },
  "schemaVersion": "3.4.16",
  "updatedAt": "2023-12-13T16:45:55.007Z",
  "networkType": "ethereum",
  "devdoc": {
    "kind": "dev",
    "methods": {},
    "version": 1
  },
  "userdoc": {
    "kind": "user",
    "methods": {},
    "version": 1
  }
}